:020000040800F2
:10000000800600208D010008950100089701000876
:10001000990100089B0100089D01000800000000F4
:100020000000000000000000000000009F01000828
:10003000A101000800000000A3010008A5010008BC
:10004000CD010008A7010008A7010008A7010008CA
:10005000A7010008A7010008A7010008A7010008E0
:10006000A7010008A7010008A7010008A7010008D0
:10007000A7010008A7010008A7010008A7010008C0
:10008000A7010008A7010008A7010008A7010008B0
:10009000A7010008A7010008A7010008A7010008A0
:1000A000A7010008A7010008A7010008A701000890
:1000B000A7010008A7010008A7010008A701000880
:1000C000A7010008A7010008A7010008A701000870
:1000D000A7010008A7010008A7010008A701000860
:1000E000A7010008A7010008A701000800F002F816
:1000F00000F03CF80AA090E8000C82448344AAF186
:100100000107DA4501D100F031F8AFF2090EBAE883
:100110000F0013F0010F18BFFB1A43F0010318473B
:100120003803000058030000103A24BF78C878C193
:10013000FAD8520724BF30C830C144BF04680C60ED
:10014000704700000023002400250026103A28BF35
:1001500078C1FBD8520728BF30C148BF0B60704739
:100160001FB500F072F91FBD10B510BD00F033F9D6
:100170001146FFF7F5FF00F02FF800F051F903B436
:10018000FFF7F2FF03BC00F059F90000094880476F
:1001900009480047FEE7FEE7FEE7FEE7FEE7FEE769
:1001A000FEE7FEE7FEE7FEE704480549054A064B81
:1001B00070470000D1020008ED0000088000002018
:1001C000800600208002002080020020411CC8B26E
:1001D0007047481C0146704710B5084844880C20F9
:1001E000074948800D200749A1F801007A4602F02E
:1001F00003027B46FFF7EDFF362010BD0000002014
:10020000040000200800002000210020674A126836
:1002100042F48032654B1A6000BF644A126802F4EF
:100220000030491C10B9B1F5A06FF6D15F4A1268D1
:1002300012F4003F01D0012000E00020012842D14B
:100240005B4A126842F01002594B1A601A46126853
:1002500022F003021A601A46126842F002021A6083
:10026000524A5268514B5A601A4652685A601A46AE
:10027000526842F480625A601A46526822F47C1234
:100280005A601A46526842F4E8125A601A461268D6
:1002900042F080721A6000BF444A126812F0007F78
:1002A000FAD0424A526822F00302404B5A601A4682
:1002B000526842F002025A6000BF3C4A526802F0A3
:1002C0000C02082AF9D1704710B5FFF79DFF10BD49
:1002D00010B53648006840F001003449086008460F
:1002E000406834490840314948600846006832494E
:1002F00008402E4908600846006820F48020086005
:100300000846406820F4FE0048604FF41F008860F3
:10031000FFF7DAFF4FF000602849086010BD10B504
:10032000002100200022214B5B6803F00C0121B169
:10033000042906D0082928D107E0214B214C23604D
:1003400027E01F4B1F4C236023E0184B5B6803F42E
:100350007010164B5B6803F48032022303EB90406D
:1003600022B9194B4343174C23600DE00F4B5B68D8
:1003700013F4003F04D0144B4343124C236003E0BA
:100380000F4B43430F4C236003E00D4B0D4C236098
:1003900000BF00BF054B5B68C3F303130B4CE15C6C
:1003A000084B1B68CB40074C236010BD0010024077
:1003B000002002400000FFF8FFFFF6FE08ED00E01D
:1003C00000127A000C00002000093D0010000020FF
:1003D000704770477047754600F028F8AE46050034
:1003E0006946534620F00700854618B020B5FFF750
:1003F000DBFEBDE820404FF000064FF000074FF055
:1004000000084FF0000B21F00701AC46ACE8C00932
:10041000ACE8C009ACE8C009ACE8C0098D4670473B
:100420000446AFF300802046FFF7A9FE004870475E
:1004300020000020004870472400002001491820B7
:10044000ABBEFEE726000200704710B5FFF7F2FFD3
:100450004FF00001016010BD78040008000000208A
:100460002000000028010008980400082000002057
:1004700060060000440100080001020300000000C3
:100480000000000000A24A0400000000000000007C
:0804900001020304060708093C
:04000005080000ED02
:00000001FF
